{
  "contractName": "DSLA_v0",
  "abi": [
    {
      "constant": true,
      "inputs": [],
      "name": "name",
      "outputs": [
        {
          "name": "",
          "type": "string"
        }
      ],
      "payable": false,
      "stateMutability": "view",
      "type": "function"
    },
    {
      "constant": false,
      "inputs": [
        {
          "name": "spender",
          "type": "address"
        },
        {
          "name": "value",
          "type": "uint256"
        }
      ],
      "name": "approve",
      "outputs": [
        {
          "name": "",
          "type": "bool"
        }
      ],
      "payable": false,
      "stateMutability": "nonpayable",
      "type": "function"
    },
    {
      "constant": true,
      "inputs": [],
      "name": "getCrowdsaleAddress",
      "outputs": [
        {
          "name": "",
          "type": "address"
        }
      ],
      "payable": false,
      "stateMutability": "view",
      "type": "function"
    },
    {
      "constant": false,
      "inputs": [
        {
          "name": "_newReleaseDate",
          "type": "uint256"
        }
      ],
      "name": "setReleaseDate",
      "outputs": [],
      "payable": false,
      "stateMutability": "nonpayable",
      "type": "function"
    },
    {
      "constant": true,
      "inputs": [],
      "name": "totalSupply",
      "outputs": [
        {
          "name": "",
          "type": "uint256"
        }
      ],
      "payable": false,
      "stateMutability": "view",
      "type": "function"
    },
    {
      "constant": false,
      "inputs": [
        {
          "name": "_crowdsaleAddress",
          "type": "address"
        }
      ],
      "name": "setCrowdsaleAddress",
      "outputs": [],
      "payable": false,
      "stateMutability": "nonpayable",
      "type": "function"
    },
    {
      "constant": true,
      "inputs": [],
      "name": "INITIAL_SUPPLY",
      "outputs": [
        {
          "name": "",
          "type": "uint256"
        }
      ],
      "payable": false,
      "stateMutability": "view",
      "type": "function"
    },
    {
      "constant": true,
      "inputs": [],
      "name": "decimals",
      "outputs": [
        {
          "name": "",
          "type": "uint8"
        }
      ],
      "payable": false,
      "stateMutability": "view",
      "type": "function"
    },
    {
      "constant": true,
      "inputs": [],
      "name": "crowdsaleAddress",
      "outputs": [
        {
          "name": "",
          "type": "address"
        }
      ],
      "payable": false,
      "stateMutability": "view",
      "type": "function"
    },
    {
      "constant": false,
      "inputs": [
        {
          "name": "spender",
          "type": "address"
        },
        {
          "name": "addedValue",
          "type": "uint256"
        }
      ],
      "name": "increaseAllowance",
      "outputs": [
        {
          "name": "",
          "type": "bool"
        }
      ],
      "payable": false,
      "stateMutability": "nonpayable",
      "type": "function"
    },
    {
      "constant": false,
      "inputs": [
        {
          "name": "value",
          "type": "uint256"
        }
      ],
      "name": "burn",
      "outputs": [],
      "payable": false,
      "stateMutability": "nonpayable",
      "type": "function"
    },
    {
      "constant": true,
      "inputs": [
        {
          "name": "owner",
          "type": "address"
        }
      ],
      "name": "balanceOf",
      "outputs": [
        {
          "name": "",
          "type": "uint256"
        }
      ],
      "payable": false,
      "stateMutability": "view",
      "type": "function"
    },
    {
      "constant": false,
      "inputs": [],
      "name": "renounceOwnership",
      "outputs": [],
      "payable": false,
      "stateMutability": "nonpayable",
      "type": "function"
    },
    {
      "constant": false,
      "inputs": [
        {
          "name": "from",
          "type": "address"
        },
        {
          "name": "value",
          "type": "uint256"
        }
      ],
      "name": "burnFrom",
      "outputs": [],
      "payable": false,
      "stateMutability": "nonpayable",
      "type": "function"
    },
    {
      "constant": true,
      "inputs": [],
      "name": "owner",
      "outputs": [
        {
          "name": "",
          "type": "address"
        }
      ],
      "payable": false,
      "stateMutability": "view",
      "type": "function"
    },
    {
      "constant": true,
      "inputs": [],
      "name": "isOwner",
      "outputs": [
        {
          "name": "",
          "type": "bool"
        }
      ],
      "payable": false,
      "stateMutability": "view",
      "type": "function"
    },
    {
      "constant": true,
      "inputs": [],
      "name": "symbol",
      "outputs": [
        {
          "name": "",
          "type": "string"
        }
      ],
      "payable": false,
      "stateMutability": "view",
      "type": "function"
    },
    {
      "constant": false,
      "inputs": [
        {
          "name": "spender",
          "type": "address"
        },
        {
          "name": "subtractedValue",
          "type": "uint256"
        }
      ],
      "name": "decreaseAllowance",
      "outputs": [
        {
          "name": "",
          "type": "bool"
        }
      ],
      "payable": false,
      "stateMutability": "nonpayable",
      "type": "function"
    },
    {
      "constant": true,
      "inputs": [],
      "name": "releaseDate",
      "outputs": [
        {
          "name": "",
          "type": "uint256"
        }
      ],
      "payable": false,
      "stateMutability": "view",
      "type": "function"
    },
    {
      "constant": true,
      "inputs": [
        {
          "name": "owner",
          "type": "address"
        },
        {
          "name": "spender",
          "type": "address"
        }
      ],
      "name": "allowance",
      "outputs": [
        {
          "name": "",
          "type": "uint256"
        }
      ],
      "payable": false,
      "stateMutability": "view",
      "type": "function"
    },
    {
      "constant": false,
      "inputs": [
        {
          "name": "newOwner",
          "type": "address"
        }
      ],
      "name": "transferOwnership",
      "outputs": [],
      "payable": false,
      "stateMutability": "nonpayable",
      "type": "function"
    },
    {
      "anonymous": false,
      "inputs": [
        {
          "indexed": false,
          "name": "_crowdsaleAddress",
          "type": "address"
        }
      ],
      "name": "CrowdsaleAddressSet",
      "type": "event"
    },
    {
      "anonymous": false,
      "inputs": [
        {
          "indexed": true,
          "name": "previousOwner",
          "type": "address"
        }
      ],
      "name": "OwnershipRenounced",
      "type": "event"
    },
    {
      "anonymous": false,
      "inputs": [
        {
          "indexed": true,
          "name": "previousOwner",
          "type": "address"
        },
        {
          "indexed": true,
          "name": "newOwner",
          "type": "address"
        }
      ],
      "name": "OwnershipTransferred",
      "type": "event"
    },
    {
      "anonymous": false,
      "inputs": [
        {
          "indexed": true,
          "name": "from",
          "type": "address"
        },
        {
          "indexed": true,
          "name": "to",
          "type": "address"
        },
        {
          "indexed": false,
          "name": "value",
          "type": "uint256"
        }
      ],
      "name": "Transfer",
      "type": "event"
    },
    {
      "anonymous": false,
      "inputs": [
        {
          "indexed": true,
          "name": "owner",
          "type": "address"
        },
        {
          "indexed": true,
          "name": "spender",
          "type": "address"
        },
        {
          "indexed": false,
          "name": "value",
          "type": "uint256"
        }
      ],
      "name": "Approval",
      "type": "event"
    },
    {
      "constant": false,
      "inputs": [
        {
          "name": "name",
          "type": "string"
        },
        {
          "name": "symbol",
          "type": "string"
        },
        {
          "name": "decimals",
          "type": "uint8"
        }
      ],
      "name": "initialize",
      "outputs": [],
      "payable": false,
      "stateMutability": "nonpayable",
      "type": "function"
    },
    {
      "constant": false,
      "inputs": [
        {
          "name": "sender",
          "type": "address"
        }
      ],
      "name": "initialize",
      "outputs": [],
      "payable": false,
      "stateMutability": "nonpayable",
      "type": "function"
    },
    {
      "constant": false,
      "inputs": [
        {
          "name": "_releaseDate",
          "type": "uint256"
        },
        {
          "name": "_tokenAdmin",
          "type": "address"
        }
      ],
      "name": "initialize",
      "outputs": [],
      "payable": false,
      "stateMutability": "nonpayable",
      "type": "function"
    },
    {
      "constant": false,
      "inputs": [
        {
          "name": "_from",
          "type": "address"
        },
        {
          "name": "_to",
          "type": "address"
        },
        {
          "name": "_value",
          "type": "uint256"
        }
      ],
      "name": "transferFrom",
      "outputs": [
        {
          "name": "",
          "type": "bool"
        }
      ],
      "payable": false,
      "stateMutability": "nonpayable",
      "type": "function"
    },
    {
      "constant": false,
      "inputs": [
        {
          "name": "_to",
          "type": "address"
        },
        {
          "name": "_value",
          "type": "uint256"
        }
      ],
      "name": "transfer",
      "outputs": [
        {
          "name": "",
          "type": "bool"
        }
      ],
      "payable": false,
      "stateMutability": "nonpayable",
      "type": "function"
    },
    {
      "constant": false,
      "inputs": [],
      "name": "mintMore",
      "outputs": [],
      "payable": false,
      "stateMutability": "nonpayable",
      "type": "function"
    }
  ],
  "bytecode": "0x608060405234801561001057600080fd5b506126a8806100206000396000f30060806040526004361061015f576000357c0100000000000000000000000000000000000000000000000000000000900463ffffffff16806306fdde0314610164578063095ea7b3146101f45780630a732dac146102595780631352faec146102b05780631624f6c6146102dd57806318160ddd146103995780631f35bc40146103c457806323b872dd146104075780632ff2e9dc1461048c578063313ce567146104b757806331d2f891146104e8578063395093511461053f57806342966c68146105a457806359550368146105d157806370a08231146105e8578063715018a61461063f57806379cc6790146106565780638da5cb5b146106a35780638f32d59b146106fa57806395d89b4114610729578063a457c2d7146107b9578063a9059cbb1461081e578063b9e3e2db14610883578063c4d66de8146108ae578063da35a26f146108f1578063dd62ed3e1461093e578063f2fde38b146109b5575b600080fd5b34801561017057600080fd5b506101796109f8565b6040518080602001828103825283818151815260200191508051906020019080838360005b838110156101b957808201518184015260208101905061019e565b50505050905090810190601f1680156101e65780820380516001836020036101000a031916815260200191505b509250505060405180910390f35b34801561020057600080fd5b5061023f600480360381019080803573ffffffffffffffffffffffffffffffffffffffff16906020019092919080359060200190929190505050610a9a565b604051808215151515815260200191505060405180910390f35b34801561026557600080fd5b5061026e610bc7565b604051808273ffffffffffffffffffffffffffffffffffffffff1673ffffffffffffffffffffffffffffffffffffffff16815260200191505060405180910390f35b3480156102bc57600080fd5b506102db60048036038101908080359060200190929190505050610bf2565b005b3480156102e957600080fd5b50610397600480360381019080803590602001908201803590602001908080601f0160208091040260200160405190810160405280939291908181526020018383808284378201915050505050509192919290803590602001908201803590602001908080601f0160208091040260200160405190810160405280939291908181526020018383808284378201915050505050509192919290803560ff169060200190929190505050610c30565b005b3480156103a557600080fd5b506103ae610db1565b6040518082815260200191505060405180910390f35b3480156103d057600080fd5b50610405600480360381019080803573ffffffffffffffffffffffffffffffffffffffff169060200190929190505050610dbb565b005b34801561041357600080fd5b50610472600480360381019080803573ffffffffffffffffffffffffffffffffffffffff169060200190929190803573ffffffffffffffffffffffffffffffffffffffff16906020019092919080359060200190929190505050610e76565b604051808215151515815260200191505060405180910390f35b34801561049857600080fd5b506104a1610f04565b6040518082815260200191505060405180910390f35b3480156104c357600080fd5b506104cc610f14565b604051808260ff1660ff16815260200191505060405180910390f35b3480156104f457600080fd5b506104fd610f2b565b604051808273ffffffffffffffffffffffffffffffffffffffff1673ffffffffffffffffffffffffffffffffffffffff16815260200191505060405180910390f35b34801561054b57600080fd5b5061058a600480360381019080803573ffffffffffffffffffffffffffffffffffffffff16906020019092919080359060200190929190505050610f52565b604051808215151515815260200191505060405180910390f35b3480156105b057600080fd5b506105cf60048036038101908080359060200190929190505050611189565b005b3480156105dd57600080fd5b506105e6611196565b005b3480156105f457600080fd5b50610629600480360381019080803573ffffffffffffffffffffffffffffffffffffffff1690602001909291905050506111c2565b6040518082815260200191505060405180910390f35b34801561064b57600080fd5b5061065461120b565b005b34801561066257600080fd5b506106a1600480360381019080803573ffffffffffffffffffffffffffffffffffffffff169060200190929190803590602001909291905050506112c7565b005b3480156106af57600080fd5b506106b86112d5565b604051808273ffffffffffffffffffffffffffffffffffffffff1673ffffffffffffffffffffffffffffffffffffffff16815260200191505060405180910390f35b34801561070657600080fd5b5061070f6112ff565b604051808215151515815260200191505060405180910390f35b34801561073557600080fd5b5061073e611357565b6040518080602001828103825283818151815260200191508051906020019080838360005b8381101561077e578082015181840152602081019050610763565b50505050905090810190601f1680156107ab5780820380516001836020036101000a031916815260200191505b509250505060405180910390f35b3480156107c557600080fd5b50610804600480360381019080803573ffffffffffffffffffffffffffffffffffffffff169060200190929190803590602001909291905050506113f9565b604051808215151515815260200191505060405180910390f35b34801561082a57600080fd5b50610869600480360381019080803573ffffffffffffffffffffffffffffffffffffffff16906020019092919080359060200190929190505050611630565b604051808215151515815260200191505060405180910390f35b34801561088f57600080fd5b506108986116bc565b6040518082815260200191505060405180910390f35b3480156108ba57600080fd5b506108ef600480360381019080803573ffffffffffffffffffffffffffffffffffffffff1690602001909291905050506116c3565b005b3480156108fd57600080fd5b5061093c60048036038101908080359060200190929190803573ffffffffffffffffffffffffffffffffffffffff16906020019092919050505061183a565b005b34801561094a57600080fd5b5061099f600480360381019080803573ffffffffffffffffffffffffffffffffffffffff169060200190929190803573ffffffffffffffffffffffffffffffffffffffff169060200190929190505050611a2f565b6040518082815260200191505060405180910390f35b3480156109c157600080fd5b506109f6600480360381019080803573ffffffffffffffffffffffffffffffffffffffff169060200190929190505050611ab6565b005b606060688054600181600116156101000203166002900480601f016020809104026020016040519081016040528092919081815260200182805460018160011615610100020316600290048015610a905780601f10610a6557610100808354040283529160200191610a90565b820191906000526020600020905b815481529060010190602001808311610a7357829003601f168201915b5050505050905090565b60008073ffffffffffffffffffffffffffffffffffffffff168373ffffffffffffffffffffffffffffffffffffffff1614151515610ad757600080fd5b81603460003373ffffffffffffffffffffffffffffffffffffffff1673ffffffffffffffffffffffffffffffffffffffff16815260200190815260200160002060008573ffffffffffffffffffffffffffffffffffffffff1673ffffffffffffffffffffffffffffffffffffffff168152602001908152602001600020819055508273ffffffffffffffffffffffffffffffffffffffff163373ffffffffffffffffffffffffffffffffffffffff167f8c5be1e5ebec7d5bd14f71427d1e84f3dd0314c0f7b2291e5b200ac8c7c3b925846040518082815260200191505060405180910390a36001905092915050565b600061010360009054906101000a900473ffffffffffffffffffffffffffffffffffffffff16905090565b610bfa6112ff565b1515610c0557600080fd5b6101025442101515610c1657600080fd5b428110151515610c2557600080fd5b806101028190555050565b60008060019054906101000a900460ff1680610c505750610c4f611ad5565b5b80610c6757506000809054906101000a900460ff16155b1515610d01576040517f08c379a000000000000000000000000000000000000000000000000000000000815260040180806020018281038252602e8152602001807f436f6e747261637420696e7374616e63652068617320616c726561647920626581526020017f656e20696e697469616c697a656400000000000000000000000000000000000081525060400191505060405180910390fd5b600060019054906101000a900460ff1690506001600060016101000a81548160ff02191690831515021790555060016000806101000a81548160ff0219169083151502179055508360689080519060200190610d5e9291906125d7565b508260699080519060200190610d759291906125d7565b5081606a60006101000a81548160ff021916908360ff16021790555080600060016101000a81548160ff02191690831515021790555050505050565b6000603554905090565b610dc36112ff565b1515610dce57600080fd5b8061010360006101000a81548173ffffffffffffffffffffffffffffffffffffffff021916908373ffffffffffffffffffffffffffffffffffffffff1602179055507f7f9876e52a5c2a670292684782dbd2b9112f8444ffce2371e6d54fe775f3302481604051808273ffffffffffffffffffffffffffffffffffffffff1673ffffffffffffffffffffffffffffffffffffffff16815260200191505060405180910390a150565b600061010254421180610e8d5750610e8c6112ff565b5b80610ee6575061010360009054906101000a900473ffffffffffffffffffffffffffffffffffffffff1673ffffffffffffffffffffffffffffffffffffffff163373ffffffffffffffffffffffffffffffffffffffff16145b1515610ef157600080fd5b610efc848484611ae6565b509392505050565b6b204fce5e3e2502611000000081565b6000606a60009054906101000a900460ff16905090565b61010360009054906101000a900473ffffffffffffffffffffffffffffffffffffffff1681565b60008073ffffffffffffffffffffffffffffffffffffffff168373ffffffffffffffffffffffffffffffffffffffff1614151515610f8f57600080fd5b61101e82603460003373ffffffffffffffffffffffffffffffffffffffff1673ffffffffffffffffffffffffffffffffffffffff16815260200190815260200160002060008673ffffffffffffffffffffffffffffffffffffffff1673ffffffffffffffffffffffffffffffffffffffff16815260200190815260200160002054611c9890919063ffffffff16565b603460003373ffffffffffffffffffffffffffffffffffffffff1673ffffffffffffffffffffffffffffffffffffffff16815260200190815260200160002060008573ffffffffffffffffffffffffffffffffffffffff1673ffffffffffffffffffffffffffffffffffffffff168152602001908152602001600020819055508273ffffffffffffffffffffffffffffffffffffffff163373ffffffffffffffffffffffffffffffffffffffff167f8c5be1e5ebec7d5bd14f71427d1e84f3dd0314c0f7b2291e5b200ac8c7c3b925603460003373ffffffffffffffffffffffffffffffffffffffff1673ffffffffffffffffffffffffffffffffffffffff16815260200190815260200160002060008773ffffffffffffffffffffffffffffffffffffffff1673ffffffffffffffffffffffffffffffffffffffff168152602001908152602001600020546040518082815260200191505060405180910390a36001905092915050565b6111933382611cb9565b50565b6111c0738ef15e55b88d8ac6602a5fe2cdd79401ac44c84b6b204fce5e3e25026110000000611e47565b565b6000603360008373ffffffffffffffffffffffffffffffffffffffff1673ffffffffffffffffffffffffffffffffffffffff168152602001908152602001600020549050919050565b6112136112ff565b151561121e57600080fd5b60cf60009054906101000a900473ffffffffffffffffffffffffffffffffffffffff1673ffffffffffffffffffffffffffffffffffffffff167ff8df31144d9c2f0f6b59d69b8b98abd5459d07f2742c4df920b25aae33c6482060405160405180910390a2600060cf60006101000a81548173ffffffffffffffffffffffffffffffffffffffff021916908373ffffffffffffffffffffffffffffffffffffffff160217905550565b6112d18282611f87565b5050565b600060cf60009054906101000a900473ffffffffffffffffffffffffffffffffffffffff16905090565b600060cf60009054906101000a900473ffffffffffffffffffffffffffffffffffffffff1673ffffffffffffffffffffffffffffffffffffffff163373ffffffffffffffffffffffffffffffffffffffff1614905090565b606060698054600181600116156101000203166002900480601f0160208091040260200160405190810160405280929190818152602001828054600181600116156101000203166002900480156113ef5780601f106113c4576101008083540402835291602001916113ef565b820191906000526020600020905b8154815290600101906020018083116113d257829003601f168201915b5050505050905090565b60008073ffffffffffffffffffffffffffffffffffffffff168373ffffffffffffffffffffffffffffffffffffffff161415151561143657600080fd5b6114c582603460003373ffffffffffffffffffffffffffffffffffffffff1673ffffffffffffffffffffffffffffffffffffffff16815260200190815260200160002060008673ffffffffffffffffffffffffffffffffffffffff1673ffffffffffffffffffffffffffffffffffffffff1681526020019081526020016000205461212f90919063ffffffff16565b603460003373ffffffffffffffffffffffffffffffffffffffff1673ffffffffffffffffffffffffffffffffffffffff16815260200190815260200160002060008573ffffffffffffffffffffffffffffffffffffffff1673ffffffffffffffffffffffffffffffffffffffff168152602001908152602001600020819055508273ffffffffffffffffffffffffffffffffffffffff163373ffffffffffffffffffffffffffffffffffffffff167f8c5be1e5ebec7d5bd14f71427d1e84f3dd0314c0f7b2291e5b200ac8c7c3b925603460003373ffffffffffffffffffffffffffffffffffffffff1673ffffffffffffffffffffffffffffffffffffffff16815260200190815260200160002060008773ffffffffffffffffffffffffffffffffffffffff1673ffffffffffffffffffffffffffffffffffffffff168152602001908152602001600020546040518082815260200191505060405180910390a36001905092915050565b60006101025442118061164757506116466112ff565b5b806116a0575061010360009054906101000a900473ffffffffffffffffffffffffffffffffffffffff1673ffffffffffffffffffffffffffffffffffffffff163373ffffffffffffffffffffffffffffffffffffffff16145b15156116ab57600080fd5b6116b58383612150565b5092915050565b6101025481565b60008060019054906101000a900460ff16806116e357506116e2611ad5565b5b806116fa57506000809054906101000a900460ff16155b1515611794576040517f08c379a000000000000000000000000000000000000000000000000000000000815260040180806020018281038252602e8152602001807f436f6e747261637420696e7374616e63652068617320616c726561647920626581526020017f656e20696e697469616c697a656400000000000000000000000000000000000081525060400191505060405180910390fd5b600060019054906101000a900460ff1690506001600060016101000a81548160ff02191690831515021790555060016000806101000a81548160ff0219169083151502179055508160cf60006101000a81548173ffffffffffffffffffffffffffffffffffffffff021916908373ffffffffffffffffffffffffffffffffffffffff16021790555080600060016101000a81548160ff0219169083151502179055505050565b60008060019054906101000a900460ff168061185a5750611859611ad5565b5b8061187157506000809054906101000a900460ff16155b151561190b576040517f08c379a000000000000000000000000000000000000000000000000000000000815260040180806020018281038252602e8152602001807f436f6e747261637420696e7374616e63652068617320616c726561647920626581526020017f656e20696e697469616c697a656400000000000000000000000000000000000081525060400191505060405180910390fd5b600060019054906101000a900460ff1690506001600060016101000a81548160ff02191690831515021790555060016000806101000a81548160ff0219169083151502179055506119c86040805190810160405280600481526020017f44534c41000000000000000000000000000000000000000000000000000000008152506040805190810160405280600481526020017f44534c41000000000000000000000000000000000000000000000000000000008152506012610c30565b6119e683738ef15e55b88d8ac6602a5fe2cdd79401ac44c84b612167565b611a10738ef15e55b88d8ac6602a5fe2cdd79401ac44c84b6b204fce5e3e25026110000000611e47565b80600060016101000a81548160ff021916908315150217905550505050565b6000603460008473ffffffffffffffffffffffffffffffffffffffff1673ffffffffffffffffffffffffffffffffffffffff16815260200190815260200160002060008373ffffffffffffffffffffffffffffffffffffffff1673ffffffffffffffffffffffffffffffffffffffff16815260200190815260200160002054905092915050565b611abe6112ff565b1515611ac957600080fd5b611ad2816122bd565b50565b600080303b90506000811491505090565b6000603460008573ffffffffffffffffffffffffffffffffffffffff1673ffffffffffffffffffffffffffffffffffffffff16815260200190815260200160002060003373ffffffffffffffffffffffffffffffffffffffff1673ffffffffffffffffffffffffffffffffffffffff168152602001908152602001600020548211151515611b7357600080fd5b611c0282603460008773ffffffffffffffffffffffffffffffffffffffff1673ffffffffffffffffffffffffffffffffffffffff16815260200190815260200160002060003373ffffffffffffffffffffffffffffffffffffffff1673ffffffffffffffffffffffffffffffffffffffff1681526020019081526020016000205461212f90919063ffffffff16565b603460008673ffffffffffffffffffffffffffffffffffffffff1673ffffffffffffffffffffffffffffffffffffffff16815260200190815260200160002060003373ffffffffffffffffffffffffffffffffffffffff1673ffffffffffffffffffffffffffffffffffffffff16815260200190815260200160002081905550611c8d8484846123b9565b600190509392505050565b6000808284019050838110151515611caf57600080fd5b8091505092915050565b60008273ffffffffffffffffffffffffffffffffffffffff1614151515611cdf57600080fd5b603360008373ffffffffffffffffffffffffffffffffffffffff1673ffffffffffffffffffffffffffffffffffffffff168152602001908152602001600020548111151515611d2d57600080fd5b611d428160355461212f90919063ffffffff16565b603581905550611d9a81603360008573ffffffffffffffffffffffffffffffffffffffff1673ffffffffffffffffffffffffffffffffffffffff1681526020019081526020016000205461212f90919063ffffffff16565b603360008473ffffffffffffffffffffffffffffffffffffffff1673ffffffffffffffffffffffffffffffffffffffff16815260200190815260200160002081905550600073ffffffffffffffffffffffffffffffffffffffff168273ffffffffffffffffffffffffffffffffffffffff167fddf252ad1be2c89b69c2b068fc378daa952ba7f163c4a11628f55a4df523b3ef836040518082815260200191505060405180910390a35050565b60008273ffffffffffffffffffffffffffffffffffffffff1614151515611e6d57600080fd5b611e8281603554611c9890919063ffffffff16565b603581905550611eda81603360008573ffffffffffffffffffffffffffffffffffffffff1673ffffffffffffffffffffffffffffffffffffffff16815260200190815260200160002054611c9890919063ffffffff16565b603360008473ffffffffffffffffffffffffffffffffffffffff1673ffffffffffffffffffffffffffffffffffffffff168152602001908152602001600020819055508173ffffffffffffffffffffffffffffffffffffffff16600073ffffffffffffffffffffffffffffffffffffffff167fddf252ad1be2c89b69c2b068fc378daa952ba7f163c4a11628f55a4df523b3ef836040518082815260200191505060405180910390a35050565b603460008373ffffffffffffffffffffffffffffffffffffffff1673ffffffffffffffffffffffffffffffffffffffff16815260200190815260200160002060003373ffffffffffffffffffffffffffffffffffffffff1673ffffffffffffffffffffffffffffffffffffffff16815260200190815260200160002054811115151561201257600080fd5b6120a181603460008573ffffffffffffffffffffffffffffffffffffffff1673ffffffffffffffffffffffffffffffffffffffff16815260200190815260200160002060003373ffffffffffffffffffffffffffffffffffffffff1673ffffffffffffffffffffffffffffffffffffffff1681526020019081526020016000205461212f90919063ffffffff16565b603460008473ffffffffffffffffffffffffffffffffffffffff1673ffffffffffffffffffffffffffffffffffffffff16815260200190815260200160002060003373ffffffffffffffffffffffffffffffffffffffff1673ffffffffffffffffffffffffffffffffffffffff1681526020019081526020016000208190555061212b8282611cb9565b5050565b60008083831115151561214157600080fd5b82840390508091505092915050565b600061215d3384846123b9565b6001905092915050565b60008060019054906101000a900460ff16806121875750612186611ad5565b5b8061219e57506000809054906101000a900460ff16155b1515612238576040517f08c379a000000000000000000000000000000000000000000000000000000000815260040180806020018281038252602e8152602001807f436f6e747261637420696e7374616e63652068617320616c726561647920626581526020017f656e20696e697469616c697a656400000000000000000000000000000000000081525060400191505060405180910390fd5b600060019054906101000a900460ff1690506001600060016101000a81548160ff02191690831515021790555060016000806101000a81548160ff021916908315150217905550428311151561228d57600080fd5b826101028190555061229e826116c3565b80600060016101000a81548160ff021916908315150217905550505050565b600073ffffffffffffffffffffffffffffffffffffffff168173ffffffffffffffffffffffffffffffffffffffff16141515156122f957600080fd5b8073ffffffffffffffffffffffffffffffffffffffff1660cf60009054906101000a900473ffffffffffffffffffffffffffffffffffffffff1673ffffffffffffffffffffffffffffffffffffffff167f8be0079c531659141344cd1fd0a4f28419497f9722a3daafe3b4186f6b6457e060405160405180910390a38060cf60006101000a81548173ffffffffffffffffffffffffffffffffffffffff021916908373ffffffffffffffffffffffffffffffffffffffff16021790555050565b603360008473ffffffffffffffffffffffffffffffffffffffff1673ffffffffffffffffffffffffffffffffffffffff16815260200190815260200160002054811115151561240757600080fd5b600073ffffffffffffffffffffffffffffffffffffffff168273ffffffffffffffffffffffffffffffffffffffff161415151561244357600080fd5b61249581603360008673ffffffffffffffffffffffffffffffffffffffff1673ffffffffffffffffffffffffffffffffffffffff1681526020019081526020016000205461212f90919063ffffffff16565b603360008573ffffffffffffffffffffffffffffffffffffffff1673ffffffffffffffffffffffffffffffffffffffff1681526020019081526020016000208190555061252a81603360008573ffffffffffffffffffffffffffffffffffffffff1673ffffffffffffffffffffffffffffffffffffffff16815260200190815260200160002054611c9890919063ffffffff16565b603360008473ffffffffffffffffffffffffffffffffffffffff1673ffffffffffffffffffffffffffffffffffffffff168152602001908152602001600020819055508173ffffffffffffffffffffffffffffffffffffffff168373ffffffffffffffffffffffffffffffffffffffff167fddf252ad1be2c89b69c2b068fc378daa952ba7f163c4a11628f55a4df523b3ef836040518082815260200191505060405180910390a3505050565b828054600181600116156101000203166002900490600052602060002090601f016020900481019282601f1061261857805160ff1916838001178555612646565b82800160010185558215612646579182015b8281111561264557825182559160200191906001019061262a565b5b5090506126539190612657565b5090565b61267991905b8082111561267557600081600090555060010161265d565b5090565b905600a165627a7a723058201da1821581d7ea685b4070a2f472933cd6a6080077148a270fd89f3bad5f0be60029",
  "source": "pragma solidity 0.4.24;\n\nimport \"zos-lib/contracts/Initializable.sol\";\nimport \"openzeppelin-eth/contracts/token/ERC20/IERC20.sol\";\nimport \"openzeppelin-eth/contracts/token/ERC20/ERC20Burnable.sol\";\nimport \"openzeppelin-eth/contracts/token/ERC20/ERC20Detailed.sol\";\nimport \"./lib/TimeLockable.sol\";\n\ncontract DSLA_v0 is Initializable, ERC20, ERC20Detailed, ERC20Burnable, TimeLockable {\n    // Tokenbits supply = 10 billions * 10^18 = 1 * 10^28 = 10000000000000000000000000000\n    uint256 public constant INITIAL_SUPPLY = 10000000000000000000000000000;\n\n    /**\n      * @dev Initializer\n      * @param _releaseDate The date from which users will be able to transfer\n      * the token\n      */\n    function initialize(uint _releaseDate, address _tokenAdmin) public initializer {\n        ERC20Detailed.initialize(\"DSLA\", \"DSLA\", 18);\n        TimeLockable.initialize(_releaseDate, address(0x8eF15e55B88d8AC6602a5FE2cDd79401ac44c84b));\n\n        // TODO: consider solving to only be able to mint once\n        _mint(address(0x8eF15e55B88d8AC6602a5FE2cDd79401ac44c84b), INITIAL_SUPPLY);\n    }\n\n    /**\n      * @dev Extend parent behavior requiring transfer to be out of lock-up period\n      * @param _from address The address which you want to send tokens from\n      * @param _to address The address which you want to transfer to\n      * @param _value uint256 the amount of tokens to be transferred\n      */\n    function transferFrom(address _from, address _to, uint256 _value) public unlocked returns(bool) {\n        super.transferFrom(_from, _to, _value);\n    }\n\n    /**\n      * @dev Extend parent behavior requiring transfer to be out of lock-up period\n      * @param _to address The address which you want to transfer to\n      * @param _value uint256 the amount of tokens to be transferred\n      */\n    function transfer(address _to, uint256 _value) public unlocked returns(bool) {\n        super.transfer(_to, _value);\n    }\n\n    function mintMore() public {\n        _mint(address(0x8eF15e55B88d8AC6602a5FE2cDd79401ac44c84b), INITIAL_SUPPLY);\n    }\n}\n",
  "sourcePath": "/Users/Martin_Balk/projects/stacktical/stacktical-dsla-token/contracts/DSLA_v0.sol",
  "compiler": {
    "name": "solc",
    "version": "0.4.24+commit.e67f0147.Emscripten.clang"
  },
  "schemaVersion": "2.0.1",
  "updatedAt": "2018-10-30T12:45:58.262Z"
}