{
  "contractName": "DSLA_v0",
  "abi": [
    {
      "constant": true,
      "inputs": [],
      "name": "name",
      "outputs": [
        {
          "name": "",
          "type": "string"
        }
      ],
      "payable": false,
      "stateMutability": "view",
      "type": "function"
    },
    {
      "constant": false,
      "inputs": [
        {
          "name": "spender",
          "type": "address"
        },
        {
          "name": "value",
          "type": "uint256"
        }
      ],
      "name": "approve",
      "outputs": [
        {
          "name": "",
          "type": "bool"
        }
      ],
      "payable": false,
      "stateMutability": "nonpayable",
      "type": "function"
    },
    {
      "constant": true,
      "inputs": [],
      "name": "totalSupply",
      "outputs": [
        {
          "name": "",
          "type": "uint256"
        }
      ],
      "payable": false,
      "stateMutability": "view",
      "type": "function"
    },
    {
      "constant": true,
      "inputs": [],
      "name": "decimals",
      "outputs": [
        {
          "name": "",
          "type": "uint8"
        }
      ],
      "payable": false,
      "stateMutability": "view",
      "type": "function"
    },
    {
      "constant": true,
      "inputs": [],
      "name": "crowdsaleAddress",
      "outputs": [
        {
          "name": "",
          "type": "address"
        }
      ],
      "payable": false,
      "stateMutability": "view",
      "type": "function"
    },
    {
      "constant": false,
      "inputs": [
        {
          "name": "spender",
          "type": "address"
        },
        {
          "name": "addedValue",
          "type": "uint256"
        }
      ],
      "name": "increaseAllowance",
      "outputs": [
        {
          "name": "",
          "type": "bool"
        }
      ],
      "payable": false,
      "stateMutability": "nonpayable",
      "type": "function"
    },
    {
      "constant": false,
      "inputs": [
        {
          "name": "value",
          "type": "uint256"
        }
      ],
      "name": "burn",
      "outputs": [],
      "payable": false,
      "stateMutability": "nonpayable",
      "type": "function"
    },
    {
      "constant": true,
      "inputs": [],
      "name": "unlockDate",
      "outputs": [
        {
          "name": "",
          "type": "uint256"
        }
      ],
      "payable": false,
      "stateMutability": "view",
      "type": "function"
    },
    {
      "constant": true,
      "inputs": [
        {
          "name": "owner",
          "type": "address"
        }
      ],
      "name": "balanceOf",
      "outputs": [
        {
          "name": "",
          "type": "uint256"
        }
      ],
      "payable": false,
      "stateMutability": "view",
      "type": "function"
    },
    {
      "constant": false,
      "inputs": [],
      "name": "renounceOwnership",
      "outputs": [],
      "payable": false,
      "stateMutability": "nonpayable",
      "type": "function"
    },
    {
      "constant": false,
      "inputs": [
        {
          "name": "from",
          "type": "address"
        },
        {
          "name": "value",
          "type": "uint256"
        }
      ],
      "name": "burnFrom",
      "outputs": [],
      "payable": false,
      "stateMutability": "nonpayable",
      "type": "function"
    },
    {
      "constant": true,
      "inputs": [],
      "name": "owner",
      "outputs": [
        {
          "name": "",
          "type": "address"
        }
      ],
      "payable": false,
      "stateMutability": "view",
      "type": "function"
    },
    {
      "constant": true,
      "inputs": [],
      "name": "isOwner",
      "outputs": [
        {
          "name": "",
          "type": "bool"
        }
      ],
      "payable": false,
      "stateMutability": "view",
      "type": "function"
    },
    {
      "constant": true,
      "inputs": [],
      "name": "symbol",
      "outputs": [
        {
          "name": "",
          "type": "string"
        }
      ],
      "payable": false,
      "stateMutability": "view",
      "type": "function"
    },
    {
      "constant": false,
      "inputs": [
        {
          "name": "spender",
          "type": "address"
        },
        {
          "name": "subtractedValue",
          "type": "uint256"
        }
      ],
      "name": "decreaseAllowance",
      "outputs": [
        {
          "name": "",
          "type": "bool"
        }
      ],
      "payable": false,
      "stateMutability": "nonpayable",
      "type": "function"
    },
    {
      "constant": true,
      "inputs": [],
      "name": "isTimeLocked",
      "outputs": [
        {
          "name": "",
          "type": "bool"
        }
      ],
      "payable": false,
      "stateMutability": "view",
      "type": "function"
    },
    {
      "constant": true,
      "inputs": [
        {
          "name": "owner",
          "type": "address"
        },
        {
          "name": "spender",
          "type": "address"
        }
      ],
      "name": "allowance",
      "outputs": [
        {
          "name": "",
          "type": "uint256"
        }
      ],
      "payable": false,
      "stateMutability": "view",
      "type": "function"
    },
    {
      "constant": false,
      "inputs": [
        {
          "name": "newOwner",
          "type": "address"
        }
      ],
      "name": "transferOwnership",
      "outputs": [],
      "payable": false,
      "stateMutability": "nonpayable",
      "type": "function"
    },
    {
      "anonymous": false,
      "inputs": [
        {
          "indexed": false,
          "name": "_crowdsaleAddress",
          "type": "address"
        }
      ],
      "name": "CrowdsaleAddressSet",
      "type": "event"
    },
    {
      "anonymous": false,
      "inputs": [
        {
          "indexed": true,
          "name": "previousOwner",
          "type": "address"
        }
      ],
      "name": "OwnershipRenounced",
      "type": "event"
    },
    {
      "anonymous": false,
      "inputs": [
        {
          "indexed": true,
          "name": "previousOwner",
          "type": "address"
        },
        {
          "indexed": true,
          "name": "newOwner",
          "type": "address"
        }
      ],
      "name": "OwnershipTransferred",
      "type": "event"
    },
    {
      "anonymous": false,
      "inputs": [
        {
          "indexed": false,
          "name": "_caller",
          "type": "address"
        },
        {
          "indexed": false,
          "name": "_newUnlockDate",
          "type": "uint256"
        }
      ],
      "name": "UnLockDateSet",
      "type": "event"
    },
    {
      "anonymous": false,
      "inputs": [
        {
          "indexed": true,
          "name": "from",
          "type": "address"
        },
        {
          "indexed": true,
          "name": "to",
          "type": "address"
        },
        {
          "indexed": false,
          "name": "value",
          "type": "uint256"
        }
      ],
      "name": "Transfer",
      "type": "event"
    },
    {
      "anonymous": false,
      "inputs": [
        {
          "indexed": true,
          "name": "owner",
          "type": "address"
        },
        {
          "indexed": true,
          "name": "spender",
          "type": "address"
        },
        {
          "indexed": false,
          "name": "value",
          "type": "uint256"
        }
      ],
      "name": "Approval",
      "type": "event"
    },
    {
      "constant": false,
      "inputs": [
        {
          "name": "name",
          "type": "string"
        },
        {
          "name": "symbol",
          "type": "string"
        },
        {
          "name": "decimals",
          "type": "uint8"
        }
      ],
      "name": "initialize",
      "outputs": [],
      "payable": false,
      "stateMutability": "nonpayable",
      "type": "function"
    },
    {
      "constant": false,
      "inputs": [
        {
          "name": "_owner",
          "type": "address"
        }
      ],
      "name": "initialize",
      "outputs": [],
      "payable": false,
      "stateMutability": "nonpayable",
      "type": "function"
    },
    {
      "constant": false,
      "inputs": [
        {
          "name": "_initialUnlockDate",
          "type": "uint256"
        }
      ],
      "name": "initialize",
      "outputs": [],
      "payable": false,
      "stateMutability": "nonpayable",
      "type": "function"
    },
    {
      "constant": false,
      "inputs": [
        {
          "name": "_from",
          "type": "address"
        },
        {
          "name": "_to",
          "type": "address"
        },
        {
          "name": "_value",
          "type": "uint256"
        }
      ],
      "name": "transferFrom",
      "outputs": [
        {
          "name": "",
          "type": "bool"
        }
      ],
      "payable": false,
      "stateMutability": "nonpayable",
      "type": "function"
    },
    {
      "constant": false,
      "inputs": [
        {
          "name": "_to",
          "type": "address"
        },
        {
          "name": "_value",
          "type": "uint256"
        }
      ],
      "name": "transfer",
      "outputs": [
        {
          "name": "",
          "type": "bool"
        }
      ],
      "payable": false,
      "stateMutability": "nonpayable",
      "type": "function"
    },
    {
      "constant": false,
      "inputs": [
        {
          "name": "_newUnlockDate",
          "type": "uint256"
        }
      ],
      "name": "setUnlockDate",
      "outputs": [],
      "payable": false,
      "stateMutability": "nonpayable",
      "type": "function"
    },
    {
      "constant": false,
      "inputs": [
        {
          "name": "_crowdsaleAddress",
          "type": "address"
        }
      ],
      "name": "setCrowdsaleAddress",
      "outputs": [],
      "payable": false,
      "stateMutability": "nonpayable",
      "type": "function"
    }
  ],
  "bytecode": "0x608060405234801561001057600080fd5b50612679806100206000396000f300608060405260043610610149576000357c0100000000000000000000000000000000000000000000000000000000900463ffffffff16806306fdde031461014e578063095ea7b3146101de5780631624f6c61461024357806318160ddd146102ff5780631f35bc401461032a57806323b872dd1461036d578063313ce567146103f257806331d2f89114610423578063395093511461047a57806342966c68146104df57806369ac57211461050c57806370a0823114610537578063715018a61461058e57806379cc6790146105a55780638da5cb5b146105f25780638f32d59b1461064957806395d89b4114610678578063a457c2d714610708578063a9059cbb1461076d578063bacb5d1c146107d2578063c4d66de8146107ff578063d6aced8e14610842578063dd62ed3e14610871578063f2fde38b146108e8578063fe4b84df1461092b575b600080fd5b34801561015a57600080fd5b50610163610958565b6040518080602001828103825283818151815260200191508051906020019080838360005b838110156101a3578082015181840152602081019050610188565b50505050905090810190601f1680156101d05780820380516001836020036101000a031916815260200191505b509250505060405180910390f35b3480156101ea57600080fd5b50610229600480360381019080803573ffffffffffffffffffffffffffffffffffffffff169060200190929190803590602001909291905050506109fa565b604051808215151515815260200191505060405180910390f35b34801561024f57600080fd5b506102fd600480360381019080803590602001908201803590602001908080601f0160208091040260200160405190810160405280939291908181526020018383808284378201915050505050509192919290803590602001908201803590602001908080601f0160208091040260200160405190810160405280939291908181526020018383808284378201915050505050509192919290803560ff169060200190929190505050610b27565b005b34801561030b57600080fd5b50610314610ca8565b6040518082815260200191505060405180910390f35b34801561033657600080fd5b5061036b600480360381019080803573ffffffffffffffffffffffffffffffffffffffff169060200190929190505050610cb2565b005b34801561037957600080fd5b506103d8600480360381019080803573ffffffffffffffffffffffffffffffffffffffff169060200190929190803573ffffffffffffffffffffffffffffffffffffffff16906020019092919080359060200190929190505050610d6d565b604051808215151515815260200191505060405180910390f35b3480156103fe57600080fd5b50610407610dfe565b604051808260ff1660ff16815260200191505060405180910390f35b34801561042f57600080fd5b50610438610e15565b604051808273ffffffffffffffffffffffffffffffffffffffff1673ffffffffffffffffffffffffffffffffffffffff16815260200191505060405180910390f35b34801561048657600080fd5b506104c5600480360381019080803573ffffffffffffffffffffffffffffffffffffffff16906020019092919080359060200190929190505050610e3c565b604051808215151515815260200191505060405180910390f35b3480156104eb57600080fd5b5061050a60048036038101908080359060200190929190505050611073565b005b34801561051857600080fd5b50610521611080565b6040518082815260200191505060405180910390f35b34801561054357600080fd5b50610578600480360381019080803573ffffffffffffffffffffffffffffffffffffffff16906020019092919050505061108a565b6040518082815260200191505060405180910390f35b34801561059a57600080fd5b506105a36110d3565b005b3480156105b157600080fd5b506105f0600480360381019080803573ffffffffffffffffffffffffffffffffffffffff1690602001909291908035906020019092919050505061118f565b005b3480156105fe57600080fd5b5061060761119d565b604051808273ffffffffffffffffffffffffffffffffffffffff1673ffffffffffffffffffffffffffffffffffffffff16815260200191505060405180910390f35b34801561065557600080fd5b5061065e6111c7565b604051808215151515815260200191505060405180910390f35b34801561068457600080fd5b5061068d61121f565b6040518080602001828103825283818151815260200191508051906020019080838360005b838110156106cd5780820151818401526020810190506106b2565b50505050905090810190601f1680156106fa5780820380516001836020036101000a031916815260200191505b509250505060405180910390f35b34801561071457600080fd5b50610753600480360381019080803573ffffffffffffffffffffffffffffffffffffffff169060200190929190803590602001909291905050506112c1565b604051808215151515815260200191505060405180910390f35b34801561077957600080fd5b506107b8600480360381019080803573ffffffffffffffffffffffffffffffffffffffff169060200190929190803590602001909291905050506114f8565b604051808215151515815260200191505060405180910390f35b3480156107de57600080fd5b506107fd60048036038101908080359060200190929190505050611587565b005b34801561080b57600080fd5b50610840600480360381019080803573ffffffffffffffffffffffffffffffffffffffff1690602001909291905050506115a6565b005b34801561084e57600080fd5b50610857611789565b604051808215151515815260200191505060405180910390f35b34801561087d57600080fd5b506108d2600480360381019080803573ffffffffffffffffffffffffffffffffffffffff169060200190929190803573ffffffffffffffffffffffffffffffffffffffff169060200190929190505050611795565b6040518082815260200191505060405180910390f35b3480156108f457600080fd5b50610929600480360381019080803573ffffffffffffffffffffffffffffffffffffffff16906020019092919050505061181c565b005b34801561093757600080fd5b506109566004803603810190808035906020019092919050505061183b565b005b606060688054600181600116156101000203166002900480601f0160208091040260200160405190810160405280929190818152602001828054600181600116156101000203166002900480156109f05780601f106109c5576101008083540402835291602001916109f0565b820191906000526020600020905b8154815290600101906020018083116109d357829003601f168201915b5050505050905090565b60008073ffffffffffffffffffffffffffffffffffffffff168373ffffffffffffffffffffffffffffffffffffffff1614151515610a3757600080fd5b81603460003373ffffffffffffffffffffffffffffffffffffffff1673ffffffffffffffffffffffffffffffffffffffff16815260200190815260200160002060008573ffffffffffffffffffffffffffffffffffffffff1673ffffffffffffffffffffffffffffffffffffffff168152602001908152602001600020819055508273ffffffffffffffffffffffffffffffffffffffff163373ffffffffffffffffffffffffffffffffffffffff167f8c5be1e5ebec7d5bd14f71427d1e84f3dd0314c0f7b2291e5b200ac8c7c3b925846040518082815260200191505060405180910390a36001905092915050565b60008060019054906101000a900460ff1680610b475750610b466119f1565b5b80610b5e57506000809054906101000a900460ff16155b1515610bf8576040517f08c379a000000000000000000000000000000000000000000000000000000000815260040180806020018281038252602e8152602001807f436f6e747261637420696e7374616e63652068617320616c726561647920626581526020017f656e20696e697469616c697a656400000000000000000000000000000000000081525060400191505060405180910390fd5b600060019054906101000a900460ff1690506001600060016101000a81548160ff02191690831515021790555060016000806101000a81548160ff0219169083151502179055508360689080519060200190610c559291906125a8565b508260699080519060200190610c6c9291906125a8565b5081606a60006101000a81548160ff021916908360ff16021790555080600060016101000a81548160ff02191690831515021790555050505050565b6000603554905090565b610cba6111c7565b1515610cc557600080fd5b8061010360006101000a81548173ffffffffffffffffffffffffffffffffffffffff021916908373ffffffffffffffffffffffffffffffffffffffff1602179055507f7f9876e52a5c2a670292684782dbd2b9112f8444ffce2371e6d54fe775f3302481604051808273ffffffffffffffffffffffffffffffffffffffff1673ffffffffffffffffffffffffffffffffffffffff16815260200191505060405180910390a150565b6000610d77611789565b1580610d875750610d866111c7565b5b80610de0575061010360009054906101000a900473ffffffffffffffffffffffffffffffffffffffff1673ffffffffffffffffffffffffffffffffffffffff163373ffffffffffffffffffffffffffffffffffffffff16145b1515610deb57600080fd5b610df6848484611a02565b509392505050565b6000606a60009054906101000a900460ff16905090565b61010360009054906101000a900473ffffffffffffffffffffffffffffffffffffffff1681565b60008073ffffffffffffffffffffffffffffffffffffffff168373ffffffffffffffffffffffffffffffffffffffff1614151515610e7957600080fd5b610f0882603460003373ffffffffffffffffffffffffffffffffffffffff1673ffffffffffffffffffffffffffffffffffffffff16815260200190815260200160002060008673ffffffffffffffffffffffffffffffffffffffff1673ffffffffffffffffffffffffffffffffffffffff16815260200190815260200160002054611bb490919063ffffffff16565b603460003373ffffffffffffffffffffffffffffffffffffffff1673ffffffffffffffffffffffffffffffffffffffff16815260200190815260200160002060008573ffffffffffffffffffffffffffffffffffffffff1673ffffffffffffffffffffffffffffffffffffffff168152602001908152602001600020819055508273ffffffffffffffffffffffffffffffffffffffff163373ffffffffffffffffffffffffffffffffffffffff167f8c5be1e5ebec7d5bd14f71427d1e84f3dd0314c0f7b2291e5b200ac8c7c3b925603460003373ffffffffffffffffffffffffffffffffffffffff1673ffffffffffffffffffffffffffffffffffffffff16815260200190815260200160002060008773ffffffffffffffffffffffffffffffffffffffff1673ffffffffffffffffffffffffffffffffffffffff168152602001908152602001600020546040518082815260200191505060405180910390a36001905092915050565b61107d3382611bd5565b50565b600060cf54905090565b6000603360008373ffffffffffffffffffffffffffffffffffffffff1673ffffffffffffffffffffffffffffffffffffffff168152602001908152602001600020549050919050565b6110db6111c7565b15156110e657600080fd5b60d060009054906101000a900473ffffffffffffffffffffffffffffffffffffffff1673ffffffffffffffffffffffffffffffffffffffff167ff8df31144d9c2f0f6b59d69b8b98abd5459d07f2742c4df920b25aae33c6482060405160405180910390a2600060d060006101000a81548173ffffffffffffffffffffffffffffffffffffffff021916908373ffffffffffffffffffffffffffffffffffffffff160217905550565b6111998282611d63565b5050565b600060d060009054906101000a900473ffffffffffffffffffffffffffffffffffffffff16905090565b600060d060009054906101000a900473ffffffffffffffffffffffffffffffffffffffff1673ffffffffffffffffffffffffffffffffffffffff163373ffffffffffffffffffffffffffffffffffffffff1614905090565b606060698054600181600116156101000203166002900480601f0160208091040260200160405190810160405280929190818152602001828054600181600116156101000203166002900480156112b75780601f1061128c576101008083540402835291602001916112b7565b820191906000526020600020905b81548152906001019060200180831161129a57829003601f168201915b5050505050905090565b60008073ffffffffffffffffffffffffffffffffffffffff168373ffffffffffffffffffffffffffffffffffffffff16141515156112fe57600080fd5b61138d82603460003373ffffffffffffffffffffffffffffffffffffffff1673ffffffffffffffffffffffffffffffffffffffff16815260200190815260200160002060008673ffffffffffffffffffffffffffffffffffffffff1673ffffffffffffffffffffffffffffffffffffffff16815260200190815260200160002054611f0b90919063ffffffff16565b603460003373ffffffffffffffffffffffffffffffffffffffff1673ffffffffffffffffffffffffffffffffffffffff16815260200190815260200160002060008573ffffffffffffffffffffffffffffffffffffffff1673ffffffffffffffffffffffffffffffffffffffff168152602001908152602001600020819055508273ffffffffffffffffffffffffffffffffffffffff163373ffffffffffffffffffffffffffffffffffffffff167f8c5be1e5ebec7d5bd14f71427d1e84f3dd0314c0f7b2291e5b200ac8c7c3b925603460003373ffffffffffffffffffffffffffffffffffffffff1673ffffffffffffffffffffffffffffffffffffffff16815260200190815260200160002060008773ffffffffffffffffffffffffffffffffffffffff1673ffffffffffffffffffffffffffffffffffffffff168152602001908152602001600020546040518082815260200191505060405180910390a36001905092915050565b6000611502611789565b158061151257506115116111c7565b5b8061156b575061010360009054906101000a900473ffffffffffffffffffffffffffffffffffffffff1673ffffffffffffffffffffffffffffffffffffffff163373ffffffffffffffffffffffffffffffffffffffff16145b151561157657600080fd5b6115808383611f2c565b5092915050565b61158f6111c7565b151561159a57600080fd5b6115a381611f43565b50565b60008060008060019054906101000a900460ff16806115c957506115c86119f1565b5b806115e057506000809054906101000a900460ff16155b151561167a576040517f08c379a000000000000000000000000000000000000000000000000000000000815260040180806020018281038252602e8152602001807f436f6e747261637420696e7374616e63652068617320616c726561647920626581526020017f656e20696e697469616c697a656400000000000000000000000000000000000081525060400191505060405180910390fd5b600060019054906101000a900460ff1690506001600060016101000a81548160ff02191690831515021790555060016000806101000a81548160ff0219169083151502179055506117376040805190810160405280600481526020017f44534c41000000000000000000000000000000000000000000000000000000008152506040805190810160405280600481526020017f44534c41000000000000000000000000000000000000000000000000000000008152506012610b27565b61174084611fd7565b635c29cc8092506117508361183b565b6b204fce5e3e250261100000009150611769848361214e565b80600060016101000a81548160ff02191690831515021790555050505050565b600060cf544210905090565b6000603460008473ffffffffffffffffffffffffffffffffffffffff1673ffffffffffffffffffffffffffffffffffffffff16815260200190815260200160002060008373ffffffffffffffffffffffffffffffffffffffff1673ffffffffffffffffffffffffffffffffffffffff16815260200190815260200160002054905092915050565b6118246111c7565b151561182f57600080fd5b6118388161228e565b50565b60008060019054906101000a900460ff168061185b575061185a6119f1565b5b8061187257506000809054906101000a900460ff16155b151561190c576040517f08c379a000000000000000000000000000000000000000000000000000000000815260040180806020018281038252602e8152602001807f436f6e747261637420696e7374616e63652068617320616c726561647920626581526020017f656e20696e697469616c697a656400000000000000000000000000000000000081525060400191505060405180910390fd5b600060019054906101000a900460ff1690506001600060016101000a81548160ff02191690831515021790555060016000806101000a81548160ff021916908315150217905550428211151561196157600080fd5b8160cf819055507f71f2827d768cdcb556a4540b78a376efdd9ca4721b86fe4667148b328d66ed9c3383604051808373ffffffffffffffffffffffffffffffffffffffff1673ffffffffffffffffffffffffffffffffffffffff1681526020018281526020019250505060405180910390a180600060016101000a81548160ff0219169083151502179055505050565b600080303b90506000811491505090565b6000603460008573ffffffffffffffffffffffffffffffffffffffff1673ffffffffffffffffffffffffffffffffffffffff16815260200190815260200160002060003373ffffffffffffffffffffffffffffffffffffffff1673ffffffffffffffffffffffffffffffffffffffff168152602001908152602001600020548211151515611a8f57600080fd5b611b1e82603460008773ffffffffffffffffffffffffffffffffffffffff1673ffffffffffffffffffffffffffffffffffffffff16815260200190815260200160002060003373ffffffffffffffffffffffffffffffffffffffff1673ffffffffffffffffffffffffffffffffffffffff16815260200190815260200160002054611f0b90919063ffffffff16565b603460008673ffffffffffffffffffffffffffffffffffffffff1673ffffffffffffffffffffffffffffffffffffffff16815260200190815260200160002060003373ffffffffffffffffffffffffffffffffffffffff1673ffffffffffffffffffffffffffffffffffffffff16815260200190815260200160002081905550611ba984848461238a565b600190509392505050565b6000808284019050838110151515611bcb57600080fd5b8091505092915050565b60008273ffffffffffffffffffffffffffffffffffffffff1614151515611bfb57600080fd5b603360008373ffffffffffffffffffffffffffffffffffffffff1673ffffffffffffffffffffffffffffffffffffffff168152602001908152602001600020548111151515611c4957600080fd5b611c5e81603554611f0b90919063ffffffff16565b603581905550611cb681603360008573ffffffffffffffffffffffffffffffffffffffff1673ffffffffffffffffffffffffffffffffffffffff16815260200190815260200160002054611f0b90919063ffffffff16565b603360008473ffffffffffffffffffffffffffffffffffffffff1673ffffffffffffffffffffffffffffffffffffffff16815260200190815260200160002081905550600073ffffffffffffffffffffffffffffffffffffffff168273ffffffffffffffffffffffffffffffffffffffff167fddf252ad1be2c89b69c2b068fc378daa952ba7f163c4a11628f55a4df523b3ef836040518082815260200191505060405180910390a35050565b603460008373ffffffffffffffffffffffffffffffffffffffff1673ffffffffffffffffffffffffffffffffffffffff16815260200190815260200160002060003373ffffffffffffffffffffffffffffffffffffffff1673ffffffffffffffffffffffffffffffffffffffff168152602001908152602001600020548111151515611dee57600080fd5b611e7d81603460008573ffffffffffffffffffffffffffffffffffffffff1673ffffffffffffffffffffffffffffffffffffffff16815260200190815260200160002060003373ffffffffffffffffffffffffffffffffffffffff1673ffffffffffffffffffffffffffffffffffffffff16815260200190815260200160002054611f0b90919063ffffffff16565b603460008473ffffffffffffffffffffffffffffffffffffffff1673ffffffffffffffffffffffffffffffffffffffff16815260200190815260200160002060003373ffffffffffffffffffffffffffffffffffffffff1673ffffffffffffffffffffffffffffffffffffffff16815260200190815260200160002081905550611f078282611bd5565b5050565b600080838311151515611f1d57600080fd5b82840390508091505092915050565b6000611f3933848461238a565b6001905092915050565b60cf5442101515611f5357600080fd5b428110151515611f6257600080fd5b8060cf819055507f71f2827d768cdcb556a4540b78a376efdd9ca4721b86fe4667148b328d66ed9c3382604051808373ffffffffffffffffffffffffffffffffffffffff1673ffffffffffffffffffffffffffffffffffffffff1681526020018281526020019250505060405180910390a150565b60008060019054906101000a900460ff1680611ff75750611ff66119f1565b5b8061200e57506000809054906101000a900460ff16155b15156120a8576040517f08c379a000000000000000000000000000000000000000000000000000000000815260040180806020018281038252602e8152602001807f436f6e747261637420696e7374616e63652068617320616c726561647920626581526020017f656e20696e697469616c697a656400000000000000000000000000000000000081525060400191505060405180910390fd5b600060019054906101000a900460ff1690506001600060016101000a81548160ff02191690831515021790555060016000806101000a81548160ff0219169083151502179055508160d060006101000a81548173ffffffffffffffffffffffffffffffffffffffff021916908373ffffffffffffffffffffffffffffffffffffffff16021790555080600060016101000a81548160ff0219169083151502179055505050565b60008273ffffffffffffffffffffffffffffffffffffffff161415151561217457600080fd5b61218981603554611bb490919063ffffffff16565b6035819055506121e181603360008573ffffffffffffffffffffffffffffffffffffffff1673ffffffffffffffffffffffffffffffffffffffff16815260200190815260200160002054611bb490919063ffffffff16565b603360008473ffffffffffffffffffffffffffffffffffffffff1673ffffffffffffffffffffffffffffffffffffffff168152602001908152602001600020819055508173ffffffffffffffffffffffffffffffffffffffff16600073ffffffffffffffffffffffffffffffffffffffff167fddf252ad1be2c89b69c2b068fc378daa952ba7f163c4a11628f55a4df523b3ef836040518082815260200191505060405180910390a35050565b600073ffffffffffffffffffffffffffffffffffffffff168173ffffffffffffffffffffffffffffffffffffffff16141515156122ca57600080fd5b8073ffffffffffffffffffffffffffffffffffffffff1660d060009054906101000a900473ffffffffffffffffffffffffffffffffffffffff1673ffffffffffffffffffffffffffffffffffffffff167f8be0079c531659141344cd1fd0a4f28419497f9722a3daafe3b4186f6b6457e060405160405180910390a38060d060006101000a81548173ffffffffffffffffffffffffffffffffffffffff021916908373ffffffffffffffffffffffffffffffffffffffff16021790555050565b603360008473ffffffffffffffffffffffffffffffffffffffff1673ffffffffffffffffffffffffffffffffffffffff1681526020019081526020016000205481111515156123d857600080fd5b600073ffffffffffffffffffffffffffffffffffffffff168273ffffffffffffffffffffffffffffffffffffffff161415151561241457600080fd5b61246681603360008673ffffffffffffffffffffffffffffffffffffffff1673ffffffffffffffffffffffffffffffffffffffff16815260200190815260200160002054611f0b90919063ffffffff16565b603360008573ffffffffffffffffffffffffffffffffffffffff1673ffffffffffffffffffffffffffffffffffffffff168152602001908152602001600020819055506124fb81603360008573ffffffffffffffffffffffffffffffffffffffff1673ffffffffffffffffffffffffffffffffffffffff16815260200190815260200160002054611bb490919063ffffffff16565b603360008473ffffffffffffffffffffffffffffffffffffffff1673ffffffffffffffffffffffffffffffffffffffff168152602001908152602001600020819055508173ffffffffffffffffffffffffffffffffffffffff168373ffffffffffffffffffffffffffffffffffffffff167fddf252ad1be2c89b69c2b068fc378daa952ba7f163c4a11628f55a4df523b3ef836040518082815260200191505060405180910390a3505050565b828054600181600116156101000203166002900490600052602060002090601f016020900481019282601f106125e957805160ff1916838001178555612617565b82800160010185558215612617579182015b828111156126165782518255916020019190600101906125fb565b5b5090506126249190612628565b5090565b61264a91905b8082111561264657600081600090555060010161262e565b5090565b905600a165627a7a723058204dc4c1e5ccee96d4dc3b244ebd40118c81234516e07c052e9892b6ffc3cdc0000029",
  "source": "pragma solidity 0.4.24;\n\nimport \"zos-lib/contracts/Initializable.sol\";\nimport \"openzeppelin-eth/contracts/ownership/Ownable.sol\";\nimport \"openzeppelin-eth/contracts/token/ERC20/IERC20.sol\";\nimport \"openzeppelin-eth/contracts/token/ERC20/ERC20Burnable.sol\";\nimport \"openzeppelin-eth/contracts/token/ERC20/ERC20Detailed.sol\";\nimport \"./lib/TimeLockable.sol\";\n\ncontract DSLA_v0 is Initializable, ERC20, ERC20Detailed, ERC20Burnable, TimeLockable, Ownable {\n    address public crowdsaleAddress;\n\n    event CrowdsaleAddressSet(address _crowdsaleAddress);\n\n    /**\n      * @dev Initializer\n      * @param _owner The address of the admin allowed to always transfer tokens\n      * set the unlockDate and the crowdsaleAddress\n      */\n    function initialize(address _owner) public initializer {\n        ERC20Detailed.initialize(\"DSLA\", \"DSLA\", 18);\n        Ownable.initialize(_owner);\n\n        // Dec 31th 2018 8AM GMT\n        uint unlockDate = 1546243200;\n        TimeLockable.initialize(unlockDate);\n\n        // Tokenbits supply = 10 billions * 10^18 = 1 * 10^28 = 10000000000000000000000000000\n        uint256 initialSupply = 10000000000000000000000000000;\n        _mint(_owner, initialSupply);\n    }\n\n    /**\n      * @dev Reverts if are not past the releaseDate, if the caller isn't the owner\n      * or crowdsaleAddress\n      */\n    modifier transferLock() {\n        require(!isTimeLocked() || isOwner() || msg.sender == crowdsaleAddress);\n        _;\n    }\n\n    /**\n      * @dev Extend parent behavior requiring transfer to be out of lock-up period\n      * @param _from address The address which you want to send tokens from\n      * @param _to address The address which you want to transfer to\n      * @param _value uint256 the amount of tokens to be transferred\n      */\n    function transferFrom(address _from, address _to, uint256 _value) public transferLock returns(bool) {\n        super.transferFrom(_from, _to, _value);\n    }\n\n    /**\n      * @dev Extend parent behavior requiring transfer to be out of lock-up period\n      * @param _to address The address which you want to transfer to\n      * @param _value uint256 the amount of tokens to be transferred\n      */\n    function transfer(address _to, uint256 _value) public transferLock returns(bool) {\n        super.transfer(_to, _value);\n    }\n\n    /**\n      * @dev Allows contract's owner to edit the date at which users are\n      * allowed to trade their token\n      * @param _newUnlockDate The release date that will replace the former one\n      */\n    function setUnlockDate(uint256 _newUnlockDate) public onlyOwner {\n        _setUnlockDate(_newUnlockDate);\n    }\n\n    /**\n      * @dev NECESSARY: Allows contract's owner to set the address of the crowdsale's\n      * contract. This is necessary so the token contract allows the crowdsale contract\n      * to deal the tokens during lock-up period.\n      * @param _crowdsaleAddress The address of the crowdsale contract\n      */\n    function setCrowdsaleAddress(address _crowdsaleAddress) public onlyOwner {\n        crowdsaleAddress = _crowdsaleAddress;\n\n        emit CrowdsaleAddressSet(_crowdsaleAddress);\n    }\n}\n",
  "sourcePath": "/home/silversurfer/Development/stacktical-dsla-upgradeability-poc/contracts/DSLA_v0.sol",
  "compiler": {
    "name": "solc",
    "version": "0.4.24+commit.e67f0147.Emscripten.clang"
  },
  "schemaVersion": "2.0.1",
  "updatedAt": "2018-11-12T14:21:41.896Z"
}