{
  "contractName": "TimeLockable",
  "abi": [
    {
      "constant": true,
      "inputs": [],
      "name": "crowdsaleAddress",
      "outputs": [
        {
          "name": "",
          "type": "address"
        }
      ],
      "payable": false,
      "stateMutability": "view",
      "type": "function"
    },
    {
      "constant": false,
      "inputs": [],
      "name": "renounceOwnership",
      "outputs": [],
      "payable": false,
      "stateMutability": "nonpayable",
      "type": "function"
    },
    {
      "constant": true,
      "inputs": [],
      "name": "owner",
      "outputs": [
        {
          "name": "",
          "type": "address"
        }
      ],
      "payable": false,
      "stateMutability": "view",
      "type": "function"
    },
    {
      "constant": true,
      "inputs": [],
      "name": "isOwner",
      "outputs": [
        {
          "name": "",
          "type": "bool"
        }
      ],
      "payable": false,
      "stateMutability": "view",
      "type": "function"
    },
    {
      "constant": true,
      "inputs": [],
      "name": "releaseDate",
      "outputs": [
        {
          "name": "",
          "type": "uint256"
        }
      ],
      "payable": false,
      "stateMutability": "view",
      "type": "function"
    },
    {
      "constant": false,
      "inputs": [
        {
          "name": "newOwner",
          "type": "address"
        }
      ],
      "name": "transferOwnership",
      "outputs": [],
      "payable": false,
      "stateMutability": "nonpayable",
      "type": "function"
    },
    {
      "anonymous": false,
      "inputs": [
        {
          "indexed": false,
          "name": "_crowdsaleAddress",
          "type": "address"
        }
      ],
      "name": "CrowdsaleAddressSet",
      "type": "event"
    },
    {
      "anonymous": false,
      "inputs": [
        {
          "indexed": true,
          "name": "previousOwner",
          "type": "address"
        }
      ],
      "name": "OwnershipRenounced",
      "type": "event"
    },
    {
      "anonymous": false,
      "inputs": [
        {
          "indexed": true,
          "name": "previousOwner",
          "type": "address"
        },
        {
          "indexed": true,
          "name": "newOwner",
          "type": "address"
        }
      ],
      "name": "OwnershipTransferred",
      "type": "event"
    },
    {
      "constant": false,
      "inputs": [
        {
          "name": "sender",
          "type": "address"
        }
      ],
      "name": "initialize",
      "outputs": [],
      "payable": false,
      "stateMutability": "nonpayable",
      "type": "function"
    },
    {
      "constant": false,
      "inputs": [
        {
          "name": "_releaseDate",
          "type": "uint256"
        },
        {
          "name": "_admin",
          "type": "address"
        }
      ],
      "name": "initialize",
      "outputs": [],
      "payable": false,
      "stateMutability": "nonpayable",
      "type": "function"
    },
    {
      "constant": false,
      "inputs": [
        {
          "name": "_newReleaseDate",
          "type": "uint256"
        }
      ],
      "name": "setReleaseDate",
      "outputs": [],
      "payable": false,
      "stateMutability": "nonpayable",
      "type": "function"
    },
    {
      "constant": false,
      "inputs": [
        {
          "name": "_crowdsaleAddress",
          "type": "address"
        }
      ],
      "name": "setCrowdsaleAddress",
      "outputs": [],
      "payable": false,
      "stateMutability": "nonpayable",
      "type": "function"
    },
    {
      "constant": true,
      "inputs": [],
      "name": "getCrowdsaleAddress",
      "outputs": [
        {
          "name": "",
          "type": "address"
        }
      ],
      "payable": false,
      "stateMutability": "view",
      "type": "function"
    }
  ],
  "bytecode": "0x608060405234801561001057600080fd5b50610a1b806100206000396000f3006080604052600436106100af576000357c0100000000000000000000000000000000000000000000000000000000900463ffffffff1680630a732dac146100b45780631352faec1461010b5780631f35bc401461013857806331d2f8911461017b578063715018a6146101d25780638da5cb5b146101e95780638f32d59b14610240578063b9e3e2db1461026f578063c4d66de81461029a578063da35a26f146102dd578063f2fde38b1461032a575b600080fd5b3480156100c057600080fd5b506100c961036d565b604051808273ffffffffffffffffffffffffffffffffffffffff1673ffffffffffffffffffffffffffffffffffffffff16815260200191505060405180910390f35b34801561011757600080fd5b5061013660048036038101908080359060200190929190505050610397565b005b34801561014457600080fd5b50610179600480360381019080803573ffffffffffffffffffffffffffffffffffffffff1690602001909291905050506103d3565b005b34801561018757600080fd5b5061019061048d565b604051808273ffffffffffffffffffffffffffffffffffffffff1673ffffffffffffffffffffffffffffffffffffffff16815260200191505060405180910390f35b3480156101de57600080fd5b506101e76104b3565b005b3480156101f557600080fd5b506101fe61056f565b604051808273ffffffffffffffffffffffffffffffffffffffff1673ffffffffffffffffffffffffffffffffffffffff16815260200191505060405180910390f35b34801561024c57600080fd5b50610255610599565b604051808215151515815260200191505060405180910390f35b34801561027b57600080fd5b506102846105f1565b6040518082815260200191505060405180910390f35b3480156102a657600080fd5b506102db600480360381019080803573ffffffffffffffffffffffffffffffffffffffff1690602001909291905050506105f7565b005b3480156102e957600080fd5b5061032860048036038101908080359060200190929190803573ffffffffffffffffffffffffffffffffffffffff16906020019092919050505061076e565b005b34801561033657600080fd5b5061036b600480360381019080803573ffffffffffffffffffffffffffffffffffffffff1690602001909291905050506108c3565b005b6000606760009054906101000a900473ffffffffffffffffffffffffffffffffffffffff16905090565b61039f610599565b15156103aa57600080fd5b606654421015156103ba57600080fd5b4281101515156103c957600080fd5b8060668190555050565b6103db610599565b15156103e657600080fd5b80606760006101000a81548173ffffffffffffffffffffffffffffffffffffffff021916908373ffffffffffffffffffffffffffffffffffffffff1602179055507f7f9876e52a5c2a670292684782dbd2b9112f8444ffce2371e6d54fe775f3302481604051808273ffffffffffffffffffffffffffffffffffffffff1673ffffffffffffffffffffffffffffffffffffffff16815260200191505060405180910390a150565b606760009054906101000a900473ffffffffffffffffffffffffffffffffffffffff1681565b6104bb610599565b15156104c657600080fd5b603360009054906101000a900473ffffffffffffffffffffffffffffffffffffffff1673ffffffffffffffffffffffffffffffffffffffff167ff8df31144d9c2f0f6b59d69b8b98abd5459d07f2742c4df920b25aae33c6482060405160405180910390a26000603360006101000a81548173ffffffffffffffffffffffffffffffffffffffff021916908373ffffffffffffffffffffffffffffffffffffffff160217905550565b6000603360009054906101000a900473ffffffffffffffffffffffffffffffffffffffff16905090565b6000603360009054906101000a900473ffffffffffffffffffffffffffffffffffffffff1673ffffffffffffffffffffffffffffffffffffffff163373ffffffffffffffffffffffffffffffffffffffff1614905090565b60665481565b60008060019054906101000a900460ff168061061757506106166108e2565b5b8061062e57506000809054906101000a900460ff16155b15156106c8576040517f08c379a000000000000000000000000000000000000000000000000000000000815260040180806020018281038252602e8152602001807f436f6e747261637420696e7374616e63652068617320616c726561647920626581526020017f656e20696e697469616c697a656400000000000000000000000000000000000081525060400191505060405180910390fd5b600060019054906101000a900460ff1690506001600060016101000a81548160ff02191690831515021790555060016000806101000a81548160ff02191690831515021790555081603360006101000a81548173ffffffffffffffffffffffffffffffffffffffff021916908373ffffffffffffffffffffffffffffffffffffffff16021790555080600060016101000a81548160ff0219169083151502179055505050565b60008060019054906101000a900460ff168061078e575061078d6108e2565b5b806107a557506000809054906101000a900460ff16155b151561083f576040517f08c379a000000000000000000000000000000000000000000000000000000000815260040180806020018281038252602e8152602001807f436f6e747261637420696e7374616e63652068617320616c726561647920626581526020017f656e20696e697469616c697a656400000000000000000000000000000000000081525060400191505060405180910390fd5b600060019054906101000a900460ff1690506001600060016101000a81548160ff02191690831515021790555060016000806101000a81548160ff021916908315150217905550428311151561089457600080fd5b826066819055506108a4826105f7565b80600060016101000a81548160ff021916908315150217905550505050565b6108cb610599565b15156108d657600080fd5b6108df816108f3565b50565b600080303b90506000811491505090565b600073ffffffffffffffffffffffffffffffffffffffff168173ffffffffffffffffffffffffffffffffffffffff161415151561092f57600080fd5b8073ffffffffffffffffffffffffffffffffffffffff16603360009054906101000a900473ffffffffffffffffffffffffffffffffffffffff1673ffffffffffffffffffffffffffffffffffffffff167f8be0079c531659141344cd1fd0a4f28419497f9722a3daafe3b4186f6b6457e060405160405180910390a380603360006101000a81548173ffffffffffffffffffffffffffffffffffffffff021916908373ffffffffffffffffffffffffffffffffffffffff160217905550505600a165627a7a723058200bb31e20b16caaa7a9658824e6d0259a77c9ef48c286a9a3a18c92ef2229595c0029",
  "source": "pragma solidity 0.4.24;\n\nimport \"zos-lib/contracts/Initializable.sol\";\nimport \"openzeppelin-eth/contracts/ownership/Ownable.sol\";\n\ncontract TimeLockable is Initializable, Ownable {\n    uint256 public releaseDate;\n    address public crowdsaleAddress;\n\n    event CrowdsaleAddressSet(address _crowdsaleAddress);\n\n    /**\n      * @dev Initializer\n      * @param _releaseDate The date from which users will be able to transfer\n      * the token\n      */\n    function initialize(uint _releaseDate, address _admin) public initializer {\n        require(_releaseDate > block.timestamp);\n        releaseDate = _releaseDate;\n\n        Ownable.initialize(_admin);\n    }\n\n    /**\n      * @dev Reverts if are not past the releaseDate or if the caller isn't the owner\n      */\n    modifier unlocked() {\n        require(block.timestamp > releaseDate || isOwner() || msg.sender == crowdsaleAddress);\n        _;\n    }\n\n    /**\n      * @dev Allows contract's owner to edit the date at which users are\n      * allowed to trade their token\n      * @param _newReleaseDate The release date that will replace the former one\n      */\n    function setReleaseDate(uint256 _newReleaseDate) public onlyOwner {\n        require(block.timestamp < releaseDate);\n        require(_newReleaseDate >= block.timestamp);\n\n        releaseDate = _newReleaseDate;\n    }\n\n    /**\n      * @dev NECESSARY: Allows contract's owner to set the address of the crowdsale's\n      * contract. This is necessary so the token contract allows the crowdsale contract\n      * to deal the tokens during lock-up period.\n      * @param _crowdsaleAddress The address of the crowdsale contract\n      */\n    function setCrowdsaleAddress(address _crowdsaleAddress) public onlyOwner {\n        crowdsaleAddress = _crowdsaleAddress;\n\n        emit CrowdsaleAddressSet(_crowdsaleAddress);\n    }\n\n    /**\n      * @dev Gives the crowdsaleAddress the token is bound to\n      * @return The current crowdsaleAddress\n      */\n    function getCrowdsaleAddress() public view returns(address) {\n        return crowdsaleAddress;\n    }\n}\n",
  "sourcePath": "/Users/Martin_Balk/projects/stacktical/stacktical-dsla-token/contracts/lib/TimeLockable.sol",
  "compiler": {
    "name": "solc",
    "version": "0.4.24+commit.e67f0147.Emscripten.clang"
  },
  "schemaVersion": "2.0.1",
  "updatedAt": "2018-10-30T12:45:58.258Z"
}