{
  "contractName": "TimeLockable",
  "abi": [
    {
      "anonymous": false,
      "inputs": [
        {
          "indexed": false,
          "name": "_caller",
          "type": "address"
        },
        {
          "indexed": false,
          "name": "_newUnlockDate",
          "type": "uint256"
        }
      ],
      "name": "UnLockDateSet",
      "type": "event"
    },
    {
      "constant": false,
      "inputs": [
        {
          "name": "_newUnlockDate",
          "type": "uint256"
        }
      ],
      "name": "initialize",
      "outputs": [],
      "payable": false,
      "stateMutability": "nonpayable",
      "type": "function"
    },
    {
      "constant": true,
      "inputs": [],
      "name": "isTimeLocked",
      "outputs": [
        {
          "name": "",
          "type": "bool"
        }
      ],
      "payable": false,
      "stateMutability": "view",
      "type": "function"
    },
    {
      "constant": true,
      "inputs": [],
      "name": "unlockDate",
      "outputs": [
        {
          "name": "",
          "type": "uint256"
        }
      ],
      "payable": false,
      "stateMutability": "view",
      "type": "function"
    }
  ],
  "bytecode": "0x608060405234801561001057600080fd5b506102ec806100206000396000f300608060405260043610610057576000357c0100000000000000000000000000000000000000000000000000000000900463ffffffff16806369ac57211461005c578063d6aced8e14610087578063fe4b84df146100b6575b600080fd5b34801561006857600080fd5b506100716100e3565b6040518082815260200191505060405180910390f35b34801561009357600080fd5b5061009c6100ed565b604051808215151515815260200191505060405180910390f35b3480156100c257600080fd5b506100e1600480360381019080803590602001909291905050506100f9565b005b6000603354905090565b60006033544210905090565b60008060019054906101000a900460ff168061011957506101186102af565b5b8061013057506000809054906101000a900460ff16155b15156101ca576040517f08c379a000000000000000000000000000000000000000000000000000000000815260040180806020018281038252602e8152602001807f436f6e747261637420696e7374616e63652068617320616c726561647920626581526020017f656e20696e697469616c697a656400000000000000000000000000000000000081525060400191505060405180910390fd5b600060019054906101000a900460ff1690506001600060016101000a81548160ff02191690831515021790555060016000806101000a81548160ff021916908315150217905550428211151561021f57600080fd5b816033819055507f71f2827d768cdcb556a4540b78a376efdd9ca4721b86fe4667148b328d66ed9c3383604051808373ffffffffffffffffffffffffffffffffffffffff1673ffffffffffffffffffffffffffffffffffffffff1681526020018281526020019250505060405180910390a180600060016101000a81548160ff0219169083151502179055505050565b600080303b905060008114915050905600a165627a7a723058207cde3dd654dd1b3e3a7e1c353cd1eec7605314982a2ccecdb4750fb79ba5f7c40029",
  "source": "pragma solidity 0.4.24;\n\nimport \"zos-lib/contracts/Initializable.sol\";\n\ncontract TimeLockable is Initializable {\n    uint256 private _unlockDate;\n\n    event UnLockDateSet(address _caller, uint256 _newUnlockDate);\n\n    /**\n      * @dev Initializer\n      * @param _newUnlockDate The date from which users will be able to transfer\n      * the token\n      */\n    function initialize(uint256 _newUnlockDate) public initializer {\n        require(_newUnlockDate > block.timestamp);\n\n        _unlockDate = _newUnlockDate;\n\n        emit UnLockDateSet(msg.sender, _newUnlockDate);\n    }\n\n    /**\n      * @dev Allows possibile implementation in parent contract to edit the\n      * date at which users are allowed to trade their tokens\n      * @param _newUnlockDate The unlock date that will replace the former one\n      */\n    function _setUnlockDate(uint256 _newUnlockDate) internal {\n        require(block.timestamp < _unlockDate);\n        require(_newUnlockDate >= block.timestamp);\n\n        _unlockDate = _newUnlockDate;\n\n        emit UnLockDateSet(msg.sender, _newUnlockDate);\n    }\n\n    /**\n      * @return true if `_unlockDate` is in the future\n      */\n    function isTimeLocked() public view returns(bool) {\n        return block.timestamp < _unlockDate;\n    }\n\n    /**\n      * @return the address of the owner.\n      */\n    function unlockDate() public view returns(uint256) {\n        return _unlockDate;\n    }\n}\n",
  "sourcePath": "/Users/Martin_Balk/projects/stacktical/stacktical-dsla-token/contracts/lib/TimeLockable.sol",
  "compiler": {
    "name": "solc",
    "version": "0.4.24+commit.e67f0147.Emscripten.clang"
  },
  "schemaVersion": "2.0.1",
  "updatedAt": "2018-10-30T15:05:07.815Z"
}